:020000020000FC
:040000000C94270035
:04000C000C940C0242
:040024000C947302C3
:100040000C943F02C0F9A4B0999282F880900FEF0F
:100050000DBF18E01DBF00E80093610006E00093AB
:10006000610000E00093C10007E005B908EF04B9A2
:100070000FEF07B90FEF0AB907E000936B0001E03B
:100080000093680000E004BD04E005BD01E00093BA
:100090006E0004E606BD00E00093B00007E00093A8
:1000A000B10001E0009370000BE00093B20000E0AB
:1000B00010E020E030E0C0E0D0E040E050E060E060
:1000C00070E080E090E0A0E0B0E0E0E0F0E0E1E0AF
:1000D0009E2EFF244427E1E08E2EE1E09E2EE1E0FB
:1000E000BE2EE1E0DE2ECC24AA2422243324442494
:1000F00055246624772424912BB934913BB9C491BB
:10010000CBB9D491DBB97894403059F0413079F0D3
:10011000423099F04330B9F04430D9F04530F9F02D
:10012000F3CF2B982C982D9A0E94B500EDCF2B98E9
:100130002C982D980E94CD00E7CF2B982C9A2D98C3
:100140000E94E000E1CF2B982C982D980E94F70098
:10015000DBCF2B9A2C982D980E940A01D5CF2B9893
:100160002C982D9A0E941D01CFCF45985C3311F435
:1001700050E073950E944301E70F2491E4E4F0E01E
:10018000E80F3491E4E4F0E0E90FC491E4E4F0E036
:10019000EA0FD491E4E4F0E008950E944301E70FF0
:1001A0002491E4E4F0E0E80F3491E4E4F0E0E90FB6
:1001B000C491E4E4F0E0EA0FD491E4E4F0E00895BF
:1001C0005C3311F450E073950E944301EB0D2491D0
:1001D000E4E4F0E0EA0D3491E4E4F0E0ED0DC491E4
:1001E000E4E4F0E0EC0DD491E4E4F0E008950E9442
:1001F0004301EB0D2491E4E4F0E0EA0D3491E4E4F2
:10020000F0E0ED0DC491E4E4F0E0EC0DD491E4E411
:10021000F0E008950E945A01E30D2491E4E4F0E037
:10022000E40D3491E4E4F0E0E60DC491E4E4F0E0A0
:10023000E70DD491E4E4F0E00895032D701759F42C
:10024000042D801741F4062D901729F4072DA017CF
:1002500011F4459A01C045985C3311F450E0739550
:100260000E944301E70F2491E4E4F0E0E80F3491A9
:10027000E4E4F0E0E90FC491E4E4F0E0EA0FD491A3
:10028000E4E4F0E008957A30A1F47727839586308E
:1002900081F48827F3940F2D083121F4FF24992746
:1002A000AA2707C093959A3021F49927A3950E9415
:1002B00072010895032D0A30A1F433244394042DD0
:1002C000063079F444245394052D083121F4552443
:1002D0006624772406C06394062D0A3011F4662440
:1002E00073940895E92DE13019F40E94DF014DC0A7
:1002F000E92DE23019F40E94F90147C0E92DE330FD
:1003000019F40E94DF0141C0E92DE43019F40E9484
:10031000C6013BC0E92DE53019F40E94DF0135C06C
:10032000E92DE63019F40E94C6012FC0E92DE7300F
:1003300019F40E94DF0129C0E92DE83019F40E9468
:10034000DF0123C0E92DE93019F40E94C6011DC068
:10035000E92DEA3019F40E94DF0117C0E92DEB30D6
:1003600019F40E94C60111C0E92DEC3019F40E9465
:10037000DF010BC09924AA24CC24E1E0BE2EE1E0E9
:10038000DE2EE1E09E2EE1E08E2E0895E82DEE3186
:1003900071F49394B394EB2DEA3019F4E0E0BE2E9F
:1003A000A394E1E0DE2ECC24E1E08E2E07C08394FE
:1003B000D394ED2DEA3011F4DD24C3940895E82D93
:1003C000EF3179F4E92DEC3021F49924BB24AA24EF
:1003D000CC249394B394E1E0DE2ECC24E1E08E2E85
:1003E00007C08394D394ED2DEA3011F4DD24C39437
:1003F0000895E82DEC3141F49394B394E1E0DE2EBE
:10040000CC24E1E08E2E07C08394D394ED2DEA3006
:1004100011F4DD24C39408950F930FBF0F93189B1D
:1004200005C0199B08C01A9B1FC025C0453009F1A3
:100430004395552720C0413011F473951CC04330BB
:1004400071F4092D0C3019F49924BB24AA24939437
:10045000B3940B2D0A3011F4BB24A3940CC0443088
:1004600011F4339408C007C0433011F40E947201A4
:1004700002C0552744270F910FBF0F9118950F9376
:100480000FB70F932394022D0A3F19F4449A2224A4
:1004900001C044986395613031F42BB9419842987A
:1004A0004398409A1AC0623031F43BB94098429860
:1004B0004398419A12C0633031F4CBB940984198C7
:1004C0004398429A0AC0643039F4DBB940984198A5
:1004D0004298439A60E001C000000EEF06BD0F9104
:1004E0000FBF0F9118950F930FB70F9353950BE014
:0C04F0000093B2000F910FBF0F91189500
:00000001FF
